:100000000C9480000C94A8000C94A8000C94810D12
:100010000C94810D0C94810D0C94A8000C94A800F4
:100020000C94A8000C94A8000C94A8000C94E30471
:100030000C94A8000C94A8000C94A8000C94A800A0
:100040000C94370D0C94A8000C94850A0C945F0A4C
:100050000C94A8000C94A8000C94A8000C94A80080
:100060000C94A60D0C94A8007E039A037303A703B7
:10007000BE03E903E103E903E903E903E9038803B4
:10008000FC08120963081209B30812094108E907BC
:1000900012091209120912091209D2061209A0073F
:1000A00012092D0800000000240027002A0000008B
:1000B0000000250028002B0000000000230026007F
:1000C00029000404040404040404020202020202DB
:1000D000030303030303010204081020408001020C
:1000E000040810200102040810200000000800028B
:1000F00001000003040700000000000000000E15CE
:1001000011241FBECFEFD8E0DEBFCDBF12E0A0E0CC
:10011000B1E0E8EAF1E302C005900D92AC32B1071C
:10012000D9F725E0ACE2B2E001C01D92AE34B207CF
:10013000E1F710E0C0E8D0E004C02197FE010E9482
:10014000DB15CF37D107C9F70E94E8100C94D218FD
:100150000C940000A82FB0E0AC57BD4F9C91292F04
:1001600030E0F901EE0FFF1F2E0F3F1FF901E95E8E
:10017000FA4FE081F0E09F01220F331FE20FF31FDF
:10018000EE50FB4F80818F7B808380918202981399
:1001900006C0992379F09150909382020BC0882376
:1001A00049F0E0918302EF5FE0938302F0E0E55DC8
:1001B000FD4F90838FEF8C930895DF92EF92FF9223
:1001C0000F931F93CF93DF93EC01D62E7A01890111
:1001D00088818C3008F06AC061E08D2D0E944B0C44
:1001E0008881E82FF0E09F01220F331FE20FF31FF9
:1001F000EE50FB4F9D2D9F732081207CD22ED92A5B
:10020000D08260E272E0AB014E195F0957FF02C075
:100210004D5F5F4F5595479555954795498340E606
:1002200059E09A01201B310B37FF02C02D5F3F4F71
:1002300035952795359527952A836CE00E94CF1533
:100240009CE0899FB001112440E050E09A01260F04
:10025000371FF901EE0FFF1F2E0F3F1FF901EE5060
:10026000FB4F908196FD16C04F5F5F4F4C3051059C
:1002700069F781110FC01092800082E080938100A5
:100280001092850010928400B19A80916F00826074
:1002900080936F00E881F0E0CF01880F991FE80F8D
:1002A000F91FEE50FB4F8081806480838881DF914D
:1002B000CF911F910F91FF90EF90DF900895CF9213
:1002C000DF92EF92FF920F931F93CF93DF9300D0B3
:1002D000CDB7DEB7833008F0A9C0482F440F440FD4
:1002E000440F485F453108F044E1E62EF82EC82E51
:1002F000CC0CCC0CCC0C50E0DD24D394C41620F5EF
:100300008EEF8C0D8231E8F40C2D10E0F801E653ED
:10031000FD4F90819230A8F4000F111F8D2D8E217A
:1003200009F47EC0913009F068C021E05D2987E0C2
:10033000C81609F443C0F801E85AFD4F30E0318394
:100340002083DD0CC394DACFF1100BC0852F8C7F96
:10035000F8949BB1682F609569238E21682B6BB947
:100360002BC081E0F8121BC0852F8E21F89425B197
:10037000952F9F7390959223282F2F73922B95B9C9
:1003800028B1829586958695837052955695569597
:100390005370952F90959223892B88B90DC05F706B
:1003A000F89428B1952F990F990F909592235E217B
:1003B000550F550F952B98B9789438C02130A1F47A
:1003C0003FB7F8948091A4029091A502A091A60253
:1003D000B091A7023FBF8093DE029093DF02A0930B
:1003E000E002B093E102A7CF1092DE021092DF028A
:1003F0001092E0021092E10217C0F801E85AFD4F96
:1004000080819181019751F062E08C2D4A8359835C
:100410000E944B0C21E04A8159818DCF21E08BCF86
:10042000913011F420E082CF20E085CF0F900F9023
:10043000DF91CF911F910F91FF90EF90DF90CF90C0
:1004400008959EEF980F923180F4E82FF0E0DF01DD
:10045000A653BD4F9C91913041F4EE0FFF1FE85A17
:10046000FD4F608371830C941B0C0895CF938630ED
:1004700080F54091C8025091C90221E030E0672B1D
:1004800081F4B90102C0660F771F8A95E2F7CB01AC
:1004900080959095842395239093C9028093C802F8
:1004A00018C0082E02C0220F331F0A94E2F7242B33
:1004B000352B3093C9022093C80290919C02911170
:1004C00008C0C82F0E94E60CBC018C2FCF910C9461
:1004D000960FCF9108950F931F93CF93DF9384319D
:1004E00080F58B01C82FD0E0FE01E653FD4F9081CF
:1004F0009330A1F0943029F582508231E0F4FE016E
:10050000EC57FD4F808190E09C01220F331F820F3A
:10051000931F895E9A4F0E94D40E0DC0833041F024
:100520009BEF980F923020F097EF980F933018F4CC
:10053000B8010E94870CCC0FDD1FC85ADD4F19830C
:100540000883DF91CF911F910F910895DB01909166
:1005500082029C30A8F530918302682F70E033232B
:1005600069F0E32FF0E0E55DFD4F8081FB01EC5782
:10057000FD4F808331503093830207C0FB01EC575D
:10058000FD4F90839F5F90938202FB01EC57FD4FDC
:10059000808190E09C01220F331F820F931F1A1657
:1005A0001B0634F4141615061CF49A01AD0104C0A0
:1005B00020E639E040E252E0895E9A4F0C94DD007B
:1005C00045E351E063E181E70C94AD0F9F92AF9258
:1005D000BF92CF92DF92EF92FF920F931F93CF9330
:1005E000DF9300D0CDB7DEB7C82ED12C96012653AD
:1005F0003D4F7901F90190819F3709F415C196307B
:1006000061F490919B02992341F06630710529F0C5
:1006100010929B029FEF909300018B01982E4EEF5A
:10062000480F4231F8F464307105E1F0F601EC57FF
:10063000FD4F80818C30B0F490E0FC01EE0FFF1F85
:100640008E0F9F1FFC01E95EFA4F808190E0FC0154
:10065000EE0FFF1F8E0F9F1FFC01EE50FB4F80819E
:1006600086FDC8C092EF990D963070F461E070E09D
:100670000230110511F060E070E0892F4A83998300
:100680000E94360299814A814231E0F4E92DE695D3
:10069000E695E695892D8770F0E0E256FD4F21E062
:1006A00030E001C0220F8A95EAF70115110519F013
:1006B0000B30110519F48081282B03C0209580810F
:1006C000282320835601AA0CBB1CF501E85AFD4FD4
:1006D000118210820C30110508F07BC0F801EC5C2F
:1006E000FF4F0C94DB15963008F09EC0423120F489
:1006F00060E0892D0E944B0C82E068C0423108F016
:1007000093C060E0892D0E944B0CF70110828CC0D1
:10071000423108F089C062E0892D0E944B0C8BE0C9
:10072000F7018083F501E85AFD4F81E090E0918365
:1007300080837AC0423108F077C060E0892D0E9442
:100740001B0C61E0892D0E944B0C81E03FC0F3E05F
:100750009F1649F08BEF890D823028F087EF890DC5
:10076000833008F061C061E0892D0E944B0C60E08D
:1007700070E0892D0E94870C83E028C0423108F088
:1007800053C084E0F7018083F601EC57FD4F808170
:100790008F3FB1F190E0FC01EE0FFF1F8E0F9F1F06
:1007A000FC01E95EFA4F808190E0FC01EE0FFF1F33
:1007B0008E0F9F1FFC01EE50FB4F808186FD34C0E1
:1007C0001FC08EEE890D823078F586E0F7018083B8
:1007D0002BC089E491E00F900F90DF91CF911F9192
:1007E0000F91FF90EF90DF90CF90BF90AF909F90D0
:1007F0000C94E60F892D4A830E94AA004A8132CFC9
:100800004FEF5FEF6FEF7FEF892D0F900F90DF912C
:10081000CF911F910F91FF90EF90DF90CF90BF90FD
:10082000AF909F900C94A6020F900F90DF91CF9104
:100830001F910F91FF90EF90DF90CF90BF90AF90FE
:100840009F9008950F931F93CF93DF9381E0809340
:100850009C0280919B02882329F010929B028FEFCB
:10086000809300011092A10210929E0210929802B1
:100870001092A20210929F02109299021092A3026B
:100880001092A00210929A0204E812E0C0E0DFEF9A
:1008900082EF8C0F863018F462E070E006C08EEFB5
:1008A0008C0F823128F461E070E08C2F0E94E60208
:1008B000F801D1938F01CF5FC43151F71092C90273
:1008C0001092C802109283021092820210929C022F
:1008D000DF91CF911F910F910895CF92DF92EF9208
:1008E000FF920F931F93CF93DF938C01009709F42E
:1008F00064C0FC0101900020E9F7BF01681B790B7F
:1009000080E090E00E940E17EC01009709F455C0BA
:100910001882B8010E94E617CE010E94FC178B01D5
:1009200060E087E00E941B0CE12CF12CC12CD12C43
:10093000C016D10644F562E870E083E00E94870C9F
:1009400060E070E08AE00E94870C64E170E089E07A
:100950000E94870C0E94F20F009751F48FEFE81A63
:10096000F80A64E670E080E090E00E94FD0CE0CFC1
:10097000E114F104E9F20197D9F68FEFC81AD80A09
:10098000E12CF12CD5CF60E070E089E00E94870C6B
:1009900066E970E08AE00E94870C60E070E083E026
:1009A0000E94870CCE01DF91CF911F910F91FF9094
:1009B000EF90DF90CF900C947616C0E0D0E060E02E
:1009C00070E0CB01ACCF1F920F920FB60F921124A3
:1009D0002F933F934F935F936F937F938F939F9347
:1009E000AF93BF93EF93FF9380919D0287FF05C064
:1009F00010928500109284001BC020919D02022E4F
:100A0000000C330B8091160590E02817390784F409
:100A100080919D02082E000C990BFC01EE0FFF1F28
:100A20008E0F9F1FFC01EE50FB4F808186FD15C08D
:100A300080919D028F5F80939D0220919D02022EE6
:100A4000000C330B8091160590E028173907C4F489
:100A500080919D028C3064F113C080919D02082E1C
:100A6000000C990BFC01EE0FFF1F8E0F9F1FFC0166
:100A7000EE50FB4F808160E08F730E941B0CD8CF3B
:100A80008091840090918500049680349C4918F4EC
:100A900080E49CE905C080918400909185000496D3
:100AA00090938900809388008FEF80939D023BC0D4
:100AB000209184003091850080919D02082E000CC9
:100AC000990BFC01EE0FFF1F8E0F9F1FFC01EE50D4
:100AD000FB4F81819281820F931F909389008093B5
:100AE000880080919D02082E000C990BFC01EE0FEE
:100AF000FF1F8E0F9F1FFC01EE50FB4F808186FF72
:100B000012C080919D02082E000C990BFC01EE0F83
:100B1000FF1F8E0F9F1FFC01EE50FB4F808161E095
:100B20008F730E941B0CFF91EF91BF91AF919F912A
:100B30008F917F916F915F914F913F912F910F9086
:100B40000FBE0F901F9018950F931F93CF93082FF0
:100B500010E0F801E256FD4F9081C62FC9230856D8
:100B60001D4F411104C0D8019C919C1771F1682F51
:100B700080914C0490914D04DC01ED91FC916F70DB
:100B800060690190F081E02D099580914C0490916D
:100B90004D04DC01ED91FC916C2F6F770190F08199
:100BA000E02D099580914C0490914D04DC01ED916C
:100BB000FC916C2F70E0660F672F661F770B01901A
:100BC000F081E02D0995F801C083CF911F910F911D
:100BD0000895833020F5282F30E0F901EF55FD4FBF
:100BE0006083672BE1F0F901E256FD4F908181119E
:100BF00003C069B16C7F0FC0813049F463B136B175
:100C000040E4349F900111246F73622B04C066B1DD
:100C10006C7366956695692341E00C94A40508956C
:100C2000EF92FF920F931F93CF93DF93082FEB0167
:100C3000142F6F3F8FEF7807F1F081E080938B03E3
:100C40000093AD0310928C031092AE0386EE94E0F5
:100C50000E94A20B0E948B10E0918002F091810211
:100C6000E230F10550F0EE0FFF1FEE0FFF1F35973A
:100C70003197F1F702C0C0E0D0E080918A03811182
:100C8000FCCF212F113208F020E281E080938A030B
:100C9000809389039FEF9093880310928703920FAC
:100CA000909386038093650380916503902F990F3D
:100CB000892B8093650380916403813061F41092E5
:100CC0006403809165038093BB008091BC0083FD29
:100CD000F8CF85EC01C085EE8093BC0080918A033B
:100CE0008130E1F380918703821710F4209187030C
:100CF000A6E6B3E044EF52E0FA018E2F841B821780
:100D000018F48D918193F9CF109215032093140359
:100D1000E12EF12C30E0E216F3061CF48AE591E0B6
:100D200005C02E153F0524F487E791E00E94E60FE9
:100D300000933802C0933902C0E0D0E0CE15DF0541
:100D400034F4909114038091150398130DC062E060
:100D5000610F48E352E087E7DF91CF911F910F9138
:100D6000FF90EF900C94AD0F86EE94E00E94560B2E
:100D7000FE01E85CFD4F82832196E0CFEF92FF9267
:100D80000F931F93CF93DF9390E0FC01E956F10995
:100D9000E231F10508F046C2EA01162FE05CFF4F90
:100DA0000C94DB158981982F987185FF03C083E926
:100DB00091E055C08881983069F168F4911132C290
:100DC00091E090938B038093AD0310928C0310926B
:100DD000AE0302E007C0903109F43BC0983109F43A
:100DE0006AC020C2011778F4FE01E00FF11D818175
:100DF000608120E8829F6019112486EE94E00E94B1
:100E0000A20B0E5FEFCF0E948B1083E191E0019760
:100E1000F1F708C24A816B81163069F430E8639FAC
:100E2000B0011124640F711D9D814C8150E8959F84
:100E30004019112406C090E8699F401911246FEFF2
:100E40007FEFDF91CF911F910F91FF90EF900C9466
:100E50001006E0910001E73054F083EB91E0DF9160
:100E6000CF911F910F91FF90EF900C94E60F9A8114
:100E70002B81F0E8663061F42F9F90011124290F37
:100E8000311D4D819C8150E8459F9019112405C06A
:100E90002F9F901911242FEF3FEFEF5FE093000198
:100EA00044E0E402F0011124E855FD4F80833283D1
:100EB00021839383B7C130910001131624F08FEF83
:100EC00080930001AFC120E0632F032E000C770B4D
:100ED000422F50E06417750764F0440F551F440F0C
:100EE000551FFA01E855FD4F9081981701F12F5FCA
:100EF000EFCF20E01CC02830C8F4DC01AA0FBB1FD4
:100F0000AA0FBB1FA455BD4F4C91880F991F880F86
:100F1000991FFC01E855FD4F408311968D919C91DE
:100F200012979283818313968C9183832F5F822FF4
:100F300090E068177907FCF631503093000172C1D8
:100F40002881898150E8859FC0011124820F911D5D
:100F5000009721F0909381028093800280919B0200
:100F6000811160C1C0E08EEE8C0F823028F466E003
:100F700070E08C2F0E94E602CF5FC431A1F781E0C0
:100F800080939B02109215031092140310928C030D
:100F90001092AE0310928A03809389031092640327
:100FA00061E082E10E941B0C61E083E10E941B0C66
:100FB0008091B9008E7F8093B9008091B9008D7FB8
:100FC0008093B90088E48093B80085E48093BC00E6
:100FD00029C1653008F426C11881F9800A81EB80A7
:100FE000CC818EEF810F823108F01CC1E12FF0E03F
:100FF000EC57FD4F20812C30B0F430E0F901EE0FBA
:10100000FF1F2E0F3F1FF901E95EFA4F208130E0EC
:10101000F901EE0FFF1F2E0F3F1FF901EE50FB4F9E
:10102000808186FDFBC080E8C89FA00111244E0D81
:10103000511D90E8099FB00111246F0D711D812F82
:101040000E94A60264E070E0812FDF91CF911F9192
:101050000F91FF90EF900C94E602623008F4E2C02A
:1010600028818981E0E88E9FC0011124820F911DA3
:10107000009711F481E090E09093020180930101C8
:10108000D1C0623008F4CEC0698170E0123091F0B6
:101090008A81F0E88F9FC0011124682B792B1330CF
:1010A00049F08B8190E090E4899F902D882711244E
:1010B000682B792B8881DF91CF911F910F91FF9041
:1010C000EF900C946B0280EF0E947E108CE60E94E1
:1010D0007E10CEEF84EF8C0F863038F482E00E94D1
:1010E0007E108AE00E947E1009C0C13039F483E08E
:1010F0000E947E1088E00E947E1008C08DEF8C0F49
:101100008230A8F389EF8C0F833088F3C23130F43A
:1011100084E00E947E108EE00E947E1080EF8C0F93
:10112000823030F486E00E947E1081E00E947E10C2
:101130008FE70E947E10CF5FC23121F1C23150F69D
:1011400080E00E947E1081E00E947E108BE00E9471
:101150007E1081E00E947E1081E00E947E1081E07E
:101160000E947E10B7CF662309F45CC0C88180EF6F
:101170000E947E108EE60E947E108C2F0E947E10B0
:10118000C43148F087EFDF91CF911F910F91FF900D
:10119000EF900C947E10D0E0FE01E653FD4F80816D
:1011A0000E947E10CC0FDD1F8E01085A1D4FF801E2
:1011B00080818F770E947E10F801808191819C014F
:1011C0002078232B39F0880F892F881F990B8F7770
:1011D0000E947E10C85ADD4F888199819C01222788
:1011E000307C232B79F2990F880B990F982F881F49
:1011F0008F770E947E10C6CF80EF0E947E108AE615
:101200000E947E10C2EFC63010F48C2F01C08FE711
:101210000E947E10CF5FC630B1F7B4CF812F0E94FD
:10122000AA0001CFDF91CF911F910F91FF90EF9016
:101230000895CF92DF92EF92FF920F931F93CF9377
:10124000DF936C017A018B01C0E0D0E0CE15DF05A1
:1012500089F0D8016D918D01D601ED91FC9101903D
:10126000F081E02DC6010995892B11F47E0102C0A1
:101270002196ECCFC701DF91CF911F910F91FF9085
:10128000EF90DF90CF9008958FEA93E00E94D90A03
:1012900021E0892B09F420E0822F08954F925F927C
:1012A0006F927F92EF92FF920F931F93CF93DF93F2
:1012B000CDB7DEB7A1970FB6F894DEBF0FBECDBF96
:1012C0007C01FA01CB0119A2223008F42AE08E0138
:1012D0000F5D1F4F422E512C612C712CBF01A301B9
:1012E00092010E94A118F901CA01015011096A3046
:1012F00014F4605D01C0695CD8016C93232B242B2E
:10130000252B61F70115110591F0F80101900020DE
:10131000E9F73197AF01401B510BD701ED91FC91DB
:101320000280F381E02DB801C701099502C080E079
:1013300090E0A1960FB6F894DEBF0FBECDBFDF914F
:10134000CF911F910F91FF90EF907F906F905F90E2
:101350004F9008950E94D8178F929F92AF92BF929C
:10136000CF92DF92EF92FF920F931F93CF93DF9371
:101370007C01EB016C0182E0C80ED11C4701E5E065
:101380008E0E911C00E010E0F60141916F0150E0DB
:1013900060E070E02AE0CE010E944E095C01E88125
:1013A000F9810190F081E02D6EE2CE0109958A0D60
:1013B0009B1D080F191FC814D90431F7F701458187
:1013C00050E060E070E02AE0CE010E944E09800FFC
:1013D000911FDF91CF911F910F91FF90EF90DF90C0
:1013E000CF90BF90AF909F908F900895EF92FF9213
:1013F0000F931F93CF93DF93EC0181E0888F9B8D38
:101400008C8D981305C0E889F989808185FD24C0F9
:10141000F62E0B8D10E00F5F1F4F0F731127E02E7C
:101420008C8DE8120CC00FB607FCFACFE889F98959
:10143000808185FFF5CFCE010E94D10BF1CF8B8D3E
:10144000FE01E80FF11DE35AFF4FF0820B8FEA898E
:10145000FB898081806207C0EE89FF896083E8890B
:10146000F98980818064808381E090E0DF91CF9171
:101470001F910F91FF90EF900895CF93DF93EC01B0
:10148000888D8823C9F0EA89FB89808185FD05C0A4
:10149000A889B9898C9186FD0FC00FB607FCF5CFDE
:1014A000808185FFF2CFA889B9898C9185FFEDCF26
:1014B000CE010E94D10BE7CFDF91CF9108951F920B
:1014C0000F920FB60F9211242F933F934F935F9378
:1014D0006F937F938F939F93AF93BF93EF93FF93FC
:1014E0008FEA93E00E94D10BFF91EF91BF91AF91F2
:1014F0009F918F917F916F915F914F913F912F912C
:101500000F900FBE0F901F9018951F920F920FB65D
:101510000F9211242F938F939F93EF93FF93E0915A
:10152000BF03F091C0038081E091C503F091C60331
:1015300082FD12C090818091C8038F5F8F732091CC
:10154000C903821751F0E091C803F0E0E155FC4F68
:10155000958F8093C80301C08081FF91EF919F9187
:101560008F912F910F900FBE0F901F901895FC0137
:10157000918D828D981761F0828DDF01A80FB11DCA
:101580005D968C91928D9F5F9F73928F90E00895EE
:101590008FEF9FEF0895FC01918D828D981731F0A8
:1015A000828DE80FF11D858D90E008958FEF9FEFFC
:1015B0000895FC01918D228D892F90E0805C9F4FD2
:1015C000821B91098F739927089580E090E0892B01
:1015D00029F00E94440981110C94000008953FB73E
:1015E000F8948091600390916103A0916203B0919F
:1015F000630326B5A89B05C02F3F19F00196A11DD6
:10160000B11D3FBFBA2FA92F982F8827820F911D98
:10161000A11DB11DBC01CD0142E0660F771F881FDF
:10162000991F4A95D1F7089585ED8093BC0080916C
:10163000BC0084FDFCCF10928A03089540913803CA
:10164000262F30E0240F311D21323105DCF42091AA
:101650008A032430C9F4FC0180E090E0861758F436
:10166000309138032191DC01AA5EBC4FA30FB11D5C
:101670002C930196F3CF80913803680F6093380361
:1016800080E0089581E0089582E008950895E09152
:10169000150380911403E81730F4F0E0EC50FD4F8F
:1016A000808190E008958FEF9FEF0895909115034A
:1016B00080911403981750F4E92FF0E0EC50FD4F9F
:1016C000208130E09F5F9093150302C02FEF3FEF22
:1016D000C90108958091140390E020911503821BA5
:1016E00091090895CF92DF92EF92FF920F931F938B
:1016F000CF93DF937C01262F972F8A0180918B0354
:10170000882391F0C62FD72F6E01C40ED51ECC159D
:10171000DD0571F06991D701ED91FC910190F081A7
:10172000E02DC7010995F3CF642F822F0E941E0B75
:10173000C801DF91CF911F910F91FF90EF90DF9043
:10174000CF900895CF93DF931F92CDB7DEB7698313
:1017500020918B032223D1F02091AE03203240F060
:1017600021E030E0FC013383228380E090E015C06B
:1017700080918C03E82FF0E0E357FC4F9981908330
:101780008F5F80938C038093AE0305C061E0CE0130
:1017900001960E941E0B81E090E00F90DF91CF91A7
:1017A0000895FC01848DDF01A80FB11DA35ABF4F1E
:1017B0002C91848D90E001968F739927848FA68950
:1017C000B7892C93A089B1898C9180648C93938D77
:1017D000848D981306C00288F389E02D80818F7D67
:1017E00080830895833081F028F4813099F082302D
:1017F000A1F008958730A9F08830B9F08430D1F491
:10180000809180008F7D03C0809180008F778093CE
:101810008000089584B58F7702C084B58F7D84BD24
:1018200008958091B0008F7703C08091B0008F7DC4
:101830008093B00008951F93CF93DF93282F30E05B
:10184000F901E651FF4F8491F901EA52FF4FD4911B
:10185000F901EE53FF4FC491CC23C9F0162F81112B
:101860000E94F20BEC2FF0E0EE0FFF1FE255FF4F4E
:10187000A591B4918FB7F894111105C09C91ED2FEB
:10188000E095E92302C0EC91ED2BEC938FBFDF9143
:10189000CF911F910895CF93DF9390E0FC01EA521E
:1018A000FF4F2491FC01EE53FF4F8491882361F197
:1018B00090E0880F991FFC01EC55FF4FC591D49122
:1018C000FC01E255FF4FA591B491611109C09FB78A
:1018D000F8948881209582238883EC912E230BC075
:1018E000623061F49FB7F8943881822F809583230A
:1018F0008883EC912E2B2C939FBF06C08FB7F89452
:10190000E8812E2B28838FBFDF91CF9108951F93FD
:10191000CF93DF93182FEB0161E00E944B0C2097CF
:1019200011F460E004C0CF3FD10539F461E0812FAC
:10193000DF91CF911F910C941B0CE12FF0E0E65149
:10194000FF4FE491E330F9F048F4E130B9F0E230D0
:10195000A1F584B5806284BDC8BD34C0E730E9F02C
:10196000E83019F1E43049F580918000806280937D
:101970008000D0938B00C0938A0024C084B5806817
:1019800084BDC7BD1FC080918000806880938000A7
:10199000D0938900C093880015C08091B000806802
:1019A0008093B000C093B3000DC08091B0008062FE
:1019B0008093B000C093B40005C0C038D1050CF0CE
:1019C000B5CFAFCFDF91CF911F9108958E3008F042
:1019D0008E508770806480937C0080917A00806450
:1019E00080937A0080917A0086FDFCCF8091780008
:1019F0002091790090E0922B08958F929F92AF9260
:101A0000BF92CF92DF92EF92FF926B017C010E9416
:101A1000EF0A4B015C01C114D104E104F104F1F0BF
:101A20000E94EF0ADC01CB0188199909AA09BB09B8
:101A3000883E9340A105B10570F321E0C21AD10898
:101A4000E108F10888EE880E83E0981EA11CB11C05
:101A5000C114D104E104F10419F7DDCFFF90EF9038
:101A6000DF90CF90BF90AF909F908F9008951F927E
:101A70000F920FB60F9211242F933F938F939F9342
:101A8000AF93BF938091A4029091A502A091A6026A
:101A9000B091A70230915F0323E0230F2D3720F48C
:101AA0000196A11DB11D05C026E8230F0296A11DB8
:101AB000B11D20935F038093A4029093A502A0938D
:101AC000A602B093A7028091600390916103A09158
:101AD0006203B09163030196A11DB11D8093600361
:101AE00090936103A0936203B0936303BF91AF919E
:101AF0009F918F913F912F910F900FBE0F901F904C
:101B000018951F920F920FB60F9211240F900FBECF
:101B10000F901F901895FC01158216821782DC0128
:101B20001896885B9F4F1D92A817B907E1F71C9282
:101B3000DF01A75BBF4F1D921C92ED56FF4F019036
:101B4000F081E02D309709F0099408951F920F92CB
:101B50000FB60F9211242F933F934F935F936F9380
:101B60007F938F939F93AF93BF93EF93FF93809156
:101B7000B900887F803609F49CC068F5883209F482
:101B80005BC090F4803109F454C038F4882309F420
:101B9000F6C0883009F44DC0F6C0883109F44CC055
:101BA000803209F45DC0EFC0803409F468C048F4A5
:101BB000803309F455C0883309F0E5C08093880369
:101BC000D8C0803509F44FC0883509F45DC0883429
:101BD00009F0D9C0D6C0883909F4C7C0A8F488373D
:101BE00009F467C038F4883609F463C0803709F413
:101BF00060C0C9C0883809F4B8C0803909F45FC032
:101C0000803809F0C0C05BC0803B09F486C038F45E
:101C1000803A09F466C0883A09F47FC0B4C0803CB9
:101C200009F4A7C0883C09F4A4C0883B09F48AC021
:101C3000AAC08091650310C09091870380918603AC
:101C4000981770F5E091870381E08E0F80938703EA
:101C5000F0E0EA59FC4F80818093BB0085EC86C0A0
:101C6000809388038EC0E091870381E08E0F80937C
:101C700087038091BB00F0E0EA59FC4F808390918C
:101C80008703809186036EC0E091870381E08E0F09
:101C9000809387038091BB00F0E0EA59FC4F80837A
:101CA0008091890381116DC081E08093640384EA8F
:101CB00061C083E080938A0310925C03CFCF809150
:101CC0005C03803208F051C0E0915C0381E08E0F2C
:101CD00080935C038091BB00F0E0E45CFC4F808368
:101CE000BDCF85EC8093BC0010928A0380915C0389
:101CF000803230F4E0915C03F0E0E45CFC4F108251
:101D000060915C0370E0E0913A03F0913B038CE357
:101D100093E0099510925C0336C084E080938A03B7
:101D20001092390310923803E0913603F091370393
:101D3000099580913803811105C081E080933803B3
:101D400010921603E091390381E08E0F80933903DE
:101D5000F0E0EA5EFC4F80818093BB0090913903F4
:101D600080913803981708F479CF85E88093BC00F8
:101D70000AC085EC8093BC0010928A0304C01092C4
:101D800088030E94140BFF91EF91BF91AF919F9137
:101D90008F917F916F915F914F913F912F910F9014
:101DA0000FBE0F901F901895CF92DF92EF92FF9287
:101DB000CF93DF93EC01603282E078070CF03DC0F6
:101DC00077FD06C0653B71052CF064EB70E002C046
:101DD00060E070E0898128E830E06901C81AD10824
:101DE00087FDD394CC0CDD1CCC0CDD1C0D2C000C21
:101DF000EE08FF088A8128E532E0281B310987FDBB
:101E00003395220F331F220F331FC901330FAA0B43
:101E1000BB0B9C01AD012C193D094E095F09DB018B
:101E20000E94621824EB30E040E050E00E94381835
:101E3000C20ED31EE41EF51EB60188818C3080F5DB
:101E4000998148E850E0491B510997FD5395440F8B
:101E5000551F440F551F6417750784F09A8128E5B4
:101E600032E0291B310997FD3395220F331F220FD2
:101E7000331FAB01261737070CF4A9014250510953
:101E8000440F551F2FB7F89490E0FC01EE0FFF1F91
:101E90008E0F9F1FFC01EE50FB4F528341832FBFDB
:101EA000DF91CF91FF90EF90DF90CF9008950F9347
:101EB0001F93CF93DF93EC010CE414E0D8018D91D4
:101EC0009C91DC01ED91FC916C2F6F770190F0817A
:101ED000E02D0995F80180819181DC01ED91FC9163
:101EE000CC0FCD2FCC1FDD0B6C2F6F770190F081C5
:101EF000E02DDF91CF911F910F91099480914C04B7
:101F000090914D04DC01ED91FC910190F081E02D68
:101F100067EF099480914C0490914D04DC01ED91A0
:101F2000FC910190F081E02D60EF0994CF93DF9355
:101F3000EB01A0914C04B0914D04ED91FC911197EF
:101F40008F70682F606E0190F081E02DCD010995B2
:101F5000CE01DF91CF910C94570FEF92FF920F9328
:101F60001F93CF93DF9300D01F92CDB7DEB7162F0C
:101F70004A835B8389830E948A0FA0914C04B091AD
:101F80004D04ED91FC9111970190F081E02D898134
:101F9000682FCD0109954A81042FE42E5B81F52E2F
:101FA0008E2D801B811738F4F70181917F0190E01D
:101FB0000E94570FF5CF0F900F900F90DF91CF91A8
:101FC0001F910F91FF90EF900C947E0FFC010190F8
:101FD0000020E9F73197BF01681B790BAC0181E75D
:101FE0000C94AD0FCF93DF93E6EFF0E08491E2EE37
:101FF000F0E0D491EEECF0E0C491CC2391F08111AB
:102000000E94F20BEC2FF0E0EE0FFF1FE854FF4FA1
:10201000A591B491EC91ED2381E090E021F480E072
:1020200002C080E090E0DF91CF910895CF930E94AD
:102030008A0F80914C0490914D04DC01ED91FC914C
:102040000190F081E02D69E7099580914C04909111
:102050004D04DC01ED91FC91A0914F04B09150042E
:102060000190F081E02D6C91099580914C04909144
:102070004D04DC01ED91FC91A0914F04B09150040E
:102080000190F081E02D11966C910995C2E080914C
:102090004E04C81760F4E0914F04F0915004EC0F27
:1020A000F11D808190E00E94570FCF5FF0CFCF915C
:1020B0000C947E0FCF93DF93CCE4D4E08881998198
:1020C000DC01ED91FC910190F081E02D69EF099523
:1020D00088819981DC01ED91FC910190F081E02DE6
:1020E00062E0099588819981DC01ED91FC91019074
:1020F000F081E02D65E0DF91CF910994A0914C042F
:10210000B0914D04ED91FC9111970190F081E02D7B
:10211000682FCD0109942091AE039091AD03213237
:1021200008F04AC080918A038111FCCF32E03093DD
:102130008A0331E0309389033FEF30938803109294
:10214000870320938603ADE8B3E046E653E0FA0147
:102150003E2F341B321718F43D913193F9CF109272
:10216000650320916503990F922B909365039091DD
:102170006403913061F4109264039091650390932D
:10218000BB009091BC0093FDF8CF95EC01C095EE9B
:102190009093BC0090918A039230E1F39091880370
:1021A0009F3F79F080918803803241F080918803CD
:1021B000803331F084E005C081E003C082E001C0DB
:1021C00083E010928C031092AE0310928B0308955B
:1021D000789484B5826084BD84B5816084BD85B502
:1021E000826085BD85B5816085BD80916E0081600E
:1021F00080936E00109281008091810082608093B4
:1022000081008091810081608093810080918000B5
:102210008160809380008091B10084608093B100E0
:102220008091B00081608093B00080917A008460DA
:1022300080937A0080917A00826080937A00809106
:102240007A00816080937A0080917A008068809320
:102250007A001092C10087E280934E0480914F046F
:10226000909150040E94761600914E0410E0C8012F
:1022700001960E94E1159093500480934F04FC0155
:10228000E00FF11F108232E0F32EDC01FC9225E01A
:1022900011962C93A8014250510965E072E0029614
:1022A0000E94ED178BE692E09093D4048093D304C0
:1022B0008FE591E09093D6048093D50486E392E075
:1022C0009093D8048093D70489EE95E09093DA0434
:1022D0008093D90486EE92E09093DC048093DB0433
:1022E00081E292E09093DE048093DD048DE694E039
:1022F0009093E2048093E1048EEB96E09093E404E3
:102300008093E30482E294E09093E0048093DF04FE
:10231000E091BF03F091C003F082E091BB03F09124
:10232000BC031082E091BD03F091BE038FEC80836B
:102330001092C703E091C303F091C40386E0808349
:10234000E091C103F091C203808180618083E091BC
:10235000C103F091C203808188608083E091C10352
:10236000F091C203808180688083E091C103F09185
:10237000C20380818F7D80838FEA93E090934D0428
:1023800080934C048091E504811150C061E08DE0A0
:102390000E944B0C62ED70E080E090E00E94FD0C2A
:1023A00061E08DE00E941B0C68E270E080E090E04C
:1023B0000E94FD0C60E08DE00E941B0C62ED70E05D
:1023C00080E090E00E94FD0C61E08DE00E941B0C1B
:1023D00068E270E080E090E00E94FD0C60E08DE03B
:1023E0000E941B0C6AEF70E080E090E00E94FD0C00
:1023F00010E062ED70E080E090E00E94FD0C61E092
:102400008DE00E941B0C68E270E080E090E00E948A
:10241000FD0C60E08DE00E941B0C1F5F153049F73A
:102420006DE770E080E090E00E94FD0C0E945A1081
:1024300080914E0481110E9416108091B100887F16
:1024400083608093B1000E94220402E060E070E0AB
:102450008BE395E00E94D40E8091F302811123C09A
:1024600062E087E00E944B0C62E088E00E944B0C27
:1024700061E087E00E944B0C61E088E00E944B0C19
:1024800060E087E00E941B0C61E084E00E944B0C3E
:1024900060E08CE00E944B0C61E083E00E944B0CFA
:1024A00081E08093F3028BB182958170C82FB0E0F8
:1024B000DB2FD093F202C093F1028091030190913F
:1024C00004018C179D0709F480C0C130D10509F0C3
:1024D0007CC01092F0021092EF0280E09FE9980F0A
:1024E0009A3158F062E070E080E090E00E94FD0CCC
:1024F0008FEA93E00E94B70AF1CFE82EF12CE0E6D4
:10250000EE1AF108F092F002E092EF02C090E302BE
:10251000D090E402CE14DF04D4F56FEF70E089E0D0
:102520000E94870C6FEF70E086E00E94870C60E0ED
:1025300070E08AE00E94870C68E770E083E00E9408
:10254000870C0E94F20F2091E5023091E60200977D
:1025500069F42F5F3F4F3093E6022093E50262E378
:1025600070E080E090E00E94FD0CD0CF12161306C0
:102570006CF6019759F61092E6021092E502FFEF11
:10258000CF1ADF0AD092E402C092E302BFCF60E02C
:1025900070E089E00E94870C6FEF70E086E00E9497
:1025A000870C60E070E08AE00E94870C60E070E0D9
:1025B00083E00E94870C1092E4021092E3021092D2
:1025C000F0021092EF021092E202D0930401C09345
:1025D00003018091A102882349F069B180919E0294
:1025E00068236C7F40E080E00E94A4058091A202F5
:1025F000882379F063B196B120E4929FC001112441
:102600006F73862B60919F02682340E081E00E94F7
:10261000A4058091A302882359F066B16C73669576
:1026200066958091A002682340E082E00E94A405A4
:102630008091DE029091DF02A091E002B091E10270
:10264000892B8A2B8B2BE9F02FB7F8948091A40269
:102650009091A502A091A602B091A7022FBF409130
:10266000DE025091DF026091E0027091E102841B72
:10267000950BA60BB70B883A9946A245B10508F011
:10268000C0C111E080914C0490914D04DC01ED91AA
:10269000FC910480F581E02D0995892B09F434C162
:1026A00080914C0490914D04DC01ED91FC910680E9
:1026B000F781E02D09958F3FBFEF9B0719F3382F66
:1026C00020919404222309F46EC0873F09F05CC076
:1026D0001092940480915404813751F0893709F0A5
:1026E00045C080914E04882369F20E941610CACF1B
:1026F000E091E104F091E204309721F28091950499
:1027000090919604DC011197B7FDDC016D01D59421
:10271000C794FC2C44E554E020E030E090E02E5FCC
:102720003F4F9F15A0F4B901645B7B4FDB01179607
:102730008C91DA018C93DB0118966C91B0E86B9F59
:1027400080191124DA018D93AD019F5FE8CFD60186
:10275000BB27A45BBB4F17968C911797882311F06A
:1027600018961C9284E594E009958CCFE091E304DF
:10277000F091E404309709F485CF6091950461509D
:1027800045E554E009957ECF20919504309196045B
:10279000F901E45BFB4F80872F5F3F4F3093960436
:1027A000209395046FCF20915104222309F469C02E
:1027B00087FD67C09FEF920F90935104E92FF0E0DF
:1027C000E45BFB4F808791115DCF80915204882399
:1027D00009F458CF803D09F445C050F4803901F127
:1027E000803C09F04BC0E091D704F091D8043EC082
:1027F000843F39F1853F51F1803E09F03FC0E091BF
:10280000D304F091D4043097C9F1809154046091BD
:10281000550470E0B0E88B9F600D711D11242BC032
:10282000E091D504F091D604309741F180915404A1
:102830006091550470E020E8829F600D711D1124A5
:102840001AC0E091DB04F091DC0404C0E091DD04E7
:10285000F091DE04309791F06091540470E0809123
:1028600055040BC0E091D904F091DA04309731F0AF
:102870006091540470E080915304099510925204C1
:1028800001CF303F38F4282F207F30E08F708093C5
:10289000530402C09C013327203F310559F17CF4D9
:1028A000203C310511F124F420393105D9F0EACE6C
:1028B000203D3105D1F0203E3105A1F0E3CE293F86
:1028C0003105F9F034F4C901845F9109029750F0A1
:1028D000D9CE2F3F310509F0D5CE8CE494E00E948B
:1028E0008B0DD0CE0093510402C01093510420935D
:1028F0005204C8CE1093940410929604109295043A
:10290000C1CE0E945A10BECE8FB7F894C090A402D8
:10291000D090A502E090A602F090A7028FBFC092CF
:10292000EB02D092EC02E092ED02F092EE02809186
:10293000E7029091E802A091E902B091EA02409189
:1029400001015091020160E070E0C81AD90AEA0A58
:10295000FB0A4C155D056E057F0508F04FC0840F1E
:10296000951FA61FB71F8093E7029093E802A093DC
:10297000E902B093EA029AECE92E92E0F92E12EF06
:102980001630C8F4F70180818230A9F48091C80222
:102990009091C902012E02C0959587950A94E2F79D
:1029A00080FF09C0143039F0812F0E94E60CBC0171
:1029B000812F0E94960F1F5FFFEFEF1AFF0A16305C
:1029C000F9F68091000187FD19C010E0E12FF0E0D9
:1029D00080910001082E000C990B8E179F0774F050
:1029E000EE0FFF1FEE0FFF1FE855FD4F6181728153
:1029F000438180810E9410061F5FE8CF0E94E50A94
:102A000025CD60E087E00E941B0C1092DE02109240
:102A1000DF021092E0021092E10233CECF92DF92F9
:102A2000EF92FF9283E291E090933F0580933E0501
:102A300010924005109241051092420510924305F4
:102A40001092B2031092B103E8EECE2EE3E0DE2E38
:102A5000E12CF12CC092B303D092B403E092B50301
:102A6000F092B60323E131E03093B0032093AF033B
:102A700025EC30E03093BC032093BB0324EC30E022
:102A80003093BE032093BD0320EC30E03093C003AD
:102A90002093BF0321EC30E03093C2032093C103A5
:102AA00022EC30E03093C4032093C30326EC30E0E3
:102AB0003093C6032093C5031092C8031092C90334
:102AC0001092CA031092CB0390934505809344055E
:102AD000109246051092470510924805109249053C
:102AE0001092E50410924E041092500410924F047C
:102AF0008CE494E00E948B0D1092E9041092E8049B
:102B0000C092EA04D092EB04E092EC04F092ED045F
:102B100089E291E09093E7048093E60480911605A2
:102B20008C30D8F491E0980F9093160580933B0574
:102B300090E0FC01EE0FFF1F8E0F9F1FFC01EE5077
:102B4000FB4F88EB9BE09283818380911605A7E180
:102B5000B5E09FEF48EB5BE004C08FEF80933B054F
:102B6000F4CF8C3078F48C93282F30E0F901EE0FFD
:102B7000FF1F2E0F3F1FF901EE50FB4F5283418381
:102B80008F5F01C09C93139625E0AB33B20749F7E2
:102B900080931605FF90EF90DF90CF900895991BDA
:102BA00079E004C0991F961708F0961B881F7A9544
:102BB000C9F780950895EE0FFF1F0590F491E02D61
:102BC0000994CF93DF938230910510F482E090E076
:102BD000E0914C05F0914D0520E030E0C0E0D0E000
:102BE000309711F14081518148175907C0F04817BB
:102BF000590761F482819381209719F09B838A831E
:102C00002BC090934D0580934C0526C021153105AE
:102C100019F04217530718F49A01BE01DF01EF01C2
:102C20000280F381E02DDCCF2115310509F1281B4D
:102C3000390B2430310590F412968D919C911397A5
:102C40006115710521F0FB019383828304C0909389
:102C50004D0580934C05FD01329644C0FD01E20F05
:102C6000F31F81939193225031092D933C933AC0E5
:102C700020914A0530914B05232B41F42091070107
:102C80003091080130934B0520934A0520910501AE
:102C9000309106012115310541F42DB73EB7409121
:102CA000090150910A01241B350BE0914A05F0916E
:102CB0004B05E217F307A0F42E1B3F0B281739072B
:102CC00078F0AC014E5F5F4F2417350748F04E0F88
:102CD0005F1F50934B0540934A058193919302C027
:102CE000E0E0F0E0CF01DF91CF9108950F931F93C3
:102CF000CF93DF93009709F48CC0FC0132971382C5
:102D0000128200914C0510914D050115110581F4B9
:102D100020813181820F931F20914A0530914B050C
:102D20002817390779F5F0934B05E0934A0571C0F0
:102D3000D80140E050E0AE17BF0750F412962D9135
:102D40003C911397AD012115310509F1D901F3CF5C
:102D50009D01DA013383228360817181860F971F81
:102D60008217930769F4EC0128813981260F371FF8
:102D70002E5F3F4F318320838A819B81938382839F
:102D8000452B29F4F0934D05E0934C0542C0139672
:102D9000FC93EE931297ED01499159919E01240FF6
:102DA000351FE217F30771F480819181840F951F1D
:102DB000029611969C938E938281938113969C9395
:102DC0008E931297E0E0F0E0D80112968D919C91DD
:102DD0001397009719F0F8018C01F6CF8D919C9113
:102DE00098012E5F3F4F820F931F20914A0530912B
:102DF0004B052817390769F4309729F410924D05CF
:102E000010924C0502C01382128210934B0500935E
:102E10004A05DF91CF911F910F910895A0E0B0E096
:102E2000E4E1F7E10C946E18EC01009721F4CB017A
:102E30000E94E115B8C0FC01E60FF71F9C0122506B
:102E40003109E217F30708F4ACC0D9010D911C91C8
:102E5000119706171707B0F00530110508F49FC049
:102E6000C80104978617970708F499C00250110902
:102E7000061B170B019311936D937C93CF010E9456
:102E800076168DC05B01A01AB10A4C01800E911E0E
:102E9000A0914C05B0914D0540E050E0E12CF12CA3
:102EA000109709F44AC0A815B905D1F56D907C902A
:102EB0001197630182E0C80ED11CCA14DB0480F1B3
:102EC000A3014A195B096A0182E0C80ED11C12965F
:102ED000BC9012971396AC91B5E0CB16D10440F09C
:102EE000B282A38351834083D9016D937C930AC03E
:102EF0000E5F1F4FC301800F911FF90191838083E3
:102F0000EB2DFA2FE114F10431F0D7011396FC9365
:102F1000EE93129744C0F0934D05E0934C053FC0EB
:102F20008D919C9111974817590708F4AC017D01C8
:102F300012960D90BC91A02DB3CF80914A0590912F
:102F40004B0588159905E1F446175707C8F4809199
:102F5000050190910601009741F48DB79EB740910D
:102F6000090150910A01841B950BE817F907C8F471
:102F7000F0934B05E0934A05F901718360830FC01C
:102F8000CB010E94E1157C01009759F0A801BE0118
:102F90000E94DD17CE010E947616C70104C0CE0143
:102FA00002C080E090E0CDB7DEB7EEE00C948A1866
:102FB00081E090E0F8940C94D218FB01DC0102C08F
:102FC00001900D9241505040D8F70895FB01DC016B
:102FD00001900D920020E1F70895FB01DC014150C2
:102FE000504048F001900D920020C9F701C01D9299
:102FF00041505040E0F708951F93FC01992788271E
:10300000BC01E89411911032E9F3193010F01E3030
:10301000C8F31B3251F01D3249F4689406C00E9477
:103020002318610F711D811D911D119110531A30CC
:10303000B0F33EF490958095709561957F4F8F4FDA
:103040009F4F1F910895592F482F372F262F660F16
:10305000771F881F991F660F771F881F991F620FA0
:10306000731F841F951F660F771F881F991F089570
:10307000052E97FB1EF400940E944F1857FD07D0B1
:103080000E94A11807FC03D04EF40C944F185095E1
:103090004095309521953F4F4F4F5F4F0895909544
:1030A0008095709561957F4F8F4F9F4F08950E9437
:1030B000C318A59F900DB49F900DA49F800D911DE6
:1030C00011240895B7FF0C9457180E945718821BBB
:1030D000930B08952F923F924F925F926F927F923F
:1030E0008F929F92AF92BF92CF92DF92EF92FF9218
:1030F0000F931F93CF93DF93CDB7DEB7CA1BDB0BC4
:103100000FB6F894DEBF0FBECDBF09942A88398868
:1031100048885F846E847D848C849B84AA84B9846F
:10312000C884DF80EE80FD800C811B81AA81B9817B
:10313000CE0FD11D0FB6F894DEBF0FBECDBFED018F
:103140000895A1E21A2EAA1BBB1BFD010DC0AA1FE8
:10315000BB1FEE1FFF1FA217B307E407F50720F000
:10316000A21BB30BE40BF50B661F771F881F991F7B
:103170001A9469F760957095809590959B01AC01C4
:10318000BD01CF010895A29FB001B39FC001A39FCD
:10319000700D811D1124911DB29F700D811D112490
:0831A000911D0895F894FFCF82
:1031A800FF1300FFFF00004E058000010000000033
:1031B800000000F6091909D90AB70ACB0A3D0A0026
:1031C800000000AC0900000000A20B720B6A0B564D
:1031D8000B470B460B4D617820736572766F732031
:1031E800617474616368656400556E6B6E6F776EA9
:1031F8002070696E206D6F6465004932433A20542F
:103208006F6F206D616E79206279746573207265C5
:10321800636569766564004932433A20546F6F20CC
:10322800666577206279746573207265636569766F
:1032380065640031302D626974206164647265735D
:1032480073696E67206E6F7420737570706F727417
:10325800656400746F6F206D616E79207175657299
:1032680069657300433A5C55736572735C54696DA4
:103278005C446F63756D656E74735C4172647569E7
:103288006E6F5C5374616E646172644669726D61DD
:103298007461556E697479565F4E322E3449524FB7
:1032A8004E4D414E5C5374616E646172644669723E
:1032B8006D617461556E697479565F4E322E34496A
:0C32C800524F4E4D414E2E696E6F0000BB
:107E0000112484B714BE81FFF0D085E080938100F7
:107E100082E08093C00088E18093C10086E0809377
:107E2000C20080E18093C4008EE0C9D0259A86E02C
:107E300020E33CEF91E0309385002093840096BBD3
:107E4000B09BFECF1D9AA8958150A9F7CC24DD24C4
:107E500088248394B5E0AB2EA1E19A2EF3E0BF2EE7
:107E6000A2D0813461F49FD0082FAFD0023811F036
:107E7000013811F484E001C083E08DD089C08234E0
:107E800011F484E103C0853419F485E0A6D080C0E4
:107E9000853579F488D0E82EFF2485D0082F10E0AE
:107EA000102F00270E291F29000F111F8ED06801E7
:107EB0006FC0863521F484E090D080E0DECF843638
:107EC00009F040C070D06FD0082F6DD080E0C81688
:107ED00080E7D80618F4F601B7BEE895C0E0D1E017
:107EE00062D089930C17E1F7F0E0CF16F0E7DF06D8
:107EF00018F0F601B7BEE89568D007B600FCFDCFD4
:107F0000A601A0E0B1E02C9130E011968C91119780
:107F100090E0982F8827822B932B1296FA010C0160
:107F200087BEE89511244E5F5F4FF1E0A038BF0790
:107F300051F7F601A7BEE89507B600FCFDCF97BE46
:107F4000E89526C08437B1F42ED02DD0F82E2BD052
:107F50003CD0F601EF2C8F010F5F1F4F84911BD097
:107F6000EA94F801C1F70894C11CD11CFA94CF0C13
:107F7000D11C0EC0853739F428D08EE10CD085E9AC
:107F80000AD08FE07ACF813511F488E018D01DD067
:107F900080E101D065CF982F8091C00085FFFCCF94
:107FA0009093C60008958091C00087FFFCCF809118
:107FB000C00084FD01C0A8958091C6000895E0E648
:107FC000F0E098E1908380830895EDDF803219F02E
:107FD00088E0F5DFFFCF84E1DECF1F93182FE3DFCA
:107FE0001150E9F7F2DF1F91089580E0E8DFEE27F6
:047FF000FF270994CA
:027FFE00040479
:0400000300007E007B
:00000001FF
